:020000040800F2
:100000000050002059050008A1050008A1050008BE
:10001000A1050008A1050008A105000800000000D6
:10002000000000000000000000000000A105000822
:10003000A105000800000000A1050008A1050008B6
:10004000A1050008A1050008A1050008A1050008F8
:10005000A1050008A1050008A1050008A1050008E8
:10006000A1050008A1050008A1050008A1050008D8
:10007000A1050008A1050008A1050008A1050008C8
:10008000A1050008A1050008A1050008A1050008B8
:10009000A1050008A1050008A1050008A1050008A8
:1000A000A1050008A1050008A1050008A105000898
:1000B000A1050008A1050008A1050008A105000888
:1000C000A1050008A1050008A1050008A105000878
:1000D000A1050008A1050008A1050008A105000868
:1000E000A1050008A1050008A10500080000000006
:1000F0000000000000000000000000000000000000
:0C01000000000000000000005FF808F1A3
:10010C0010B5054C237833B9044B13B10448AFF345
:10011C0000800123237010BD14000020000000009B
:10012C00EC05000808B5034B1BB103490348AFF3BA
:10013C00008008BD0000000018000020EC0500083D
:10014C00704700002DE9F04700F0C0F800F0C6F849
:10015C000124564B1C7000F01FF94FF00008464666
:10016C002546214667E051490B7801335A4203F08A
:10017C00030302F0030258BF53420B7000F00CF95A
:10018C004B4800F0DFF869E04A4E4FF400533361FE
:10019C0042F2107000F0D6F84FF000533361A846CD
:1001AC0026465EE044490A780132444B83FB020345
:1001BC0003EB4303D31A0B7013E0DFF8F8A04FF4F2
:1001CC000053CAF810304CF2503000F0BBF84FF02E
:1001DC000053CAF810304CF2503000F0B3F808F16C
:1001EC000108B8F1020FE8DD334B187800F05AF92A
:1001FC004FF001083DE02F4D4FF400532B6147F2B7
:10020C00305000F09FF84FF000532B6147F2305004
:10021C0000F098F80134012CEDDD00F0BDF800265B
:10022C0002E04FF00008464600F0EAF8642000F0C7
:10023C0089F84D463946224B9B6813F001030CBFDD
:10024C00012700271B4A946814F480440CBF4FF01C
:10025C0001094FF000090BB9002984D00CB9002D0D
:10026C0092D034B90136B6F57A7F02D9B8F1000FC5
:10027C0098D0002CD8D0002DD6D0B8F1000FD0D10A
:10028C000A2E11D90C4B1A780E48835C0133594253
:10029C0003F0030301F0030158BF4B4283540024C5
:1002AC00094B43F82240B6E70026BDE710000020BA
:1002BC00A086010000100140430000205655555502
:1002CC00000801404000002034000020024A9369DD
:1002DC0043F014039361704700100240174B1A68E7
:1002EC0022F4700242F440121A601A6822F0706212
:1002FC0042F040721A601A6822F4704242F4405282
:10030C001A600F4A516821F4700141F44011516098
:10031C00196821F00F0141F008011960D96841F00A
:10032C000101D960536823F0706343F0006353609C
:10033C00D36843F48043D360704700BF000801408A
:10034C000010014082B00023019302E0019B0133B5
:10035C000193019B8342F9D302B07047024628B146
:10036C00012801D0032302E0062300E0052339B164
:10037C00012000FA03F306480361064B99547047B9
:10038C001033012000FA03F301480361F5E700BFC5
:10039C00000801403000002010B5002412E0164B7C
:1003AC001B78012B94BF0023012318E0124B1B7800
:1003BC00022B94BF0023012311E00021E0B2FFF7D0
:1003CC00CDFF0134022C15DC012CE8D0022CEDD031
:1003DC00002CF2D1084B1B78003B18BF0123002BDB
:1003EC00EBD0064B1B5D002BEBD10121E0B2FFF7EC
:1003FC00B5FFE6E710BD00BF100000204000002054
:10040C0010B5002306E0224951F82320013241F8AF
:10041C0023200133022BF6DD00240EE01D4B1B784C
:10042C00012B94BF0023012314E01A4B1B78022BE1
:10043C0094BF002301230DE00134022C27DC012C96
:10044C00ECD0022CF1D0002CF6D1124B1B78003BD7
:10045C0018BF0123002BEFD00F4B1B5D002BEBD0F3
:10046C00032BE9D80D4A52F82330094A52F82420BC
:10047C009A42E1D30A4B195DB1FA81F14909E0B214
:10048C00FFF76CFF024B002243F82420D4E710BD89
:10049C00340000201000002040000020000000204C
:1004AC0030000020F0B583B00646002307E0244A54
:1004BC00D15C03F108026A4402F8041C0133022BDC
:1004CC00F5DD002404E00021E0B2FFF747FF013422
:1004DC00022CF8DD00240EE01A4F4FF400533B6160
:1004EC00194D2846FFF72EFF4FF000533B6128466D
:1004FC00FFF728FF0134022CEEDD00240FE0012170
:10050C003046FFF72BFF104D2846FFF71BFF00214D
:10051C003046FFF723FF2846FFF714FF0134042C65
:10052C00EDDD002408E004F108036B4413F8041C0F
:10053C00E0B2FFF713FF0134022CF4DD03B0F0BD81
:10054C00300000200010014080380100FFF7F8FD5A
:10055C000B480C490C4A002302E0D458C450043315
:10056C00C4188C42F9D3094A094C002301E01360EA
:10057C000432A242FBD300F00FF8FFF7E3FD704703
:10058C0000000020140000200C06000814000020BD
:10059C0044000020FEE7000070B500260C4D0D4C09
:1005AC00641BA410A64209D100F01AF800260A4DCB
:1005BC000A4C641BA410A64205D170BD55F8043B2F
:1005CC0098470136EEE755F8043B98470136F2E7B9
:1005DC0004060008040600080406000808060008C3
:1005EC00F8B500BFF8BC08BC9E467047F8B500BF14
:0805FC00F8BC08BC9E467047E4
:0406040031010008B8
:040608000D010008D8
:10060C000000000020030000400100007800000002
:04061C0001000000D9
:040000050800055991
:00000001FF
