:020000040800F2
:1000000000500020B1020008F9020008F9020008BF
:10001000F9020008F9020008F902000800000000D7
:10002000000000000000000000000000F9020008CD
:10003000F902000800000000F9020008F9020008B7
:10004000F9020008F9020008F9020008F9020008A4
:10005000F9020008F9020008F9020008F902000894
:10006000F9020008F9020008F9020008F902000884
:10007000F9020008F9020008F9020008F902000874
:10008000F9020008F9020008F9020008F902000864
:10009000F9020008F9020008F9020008F902000854
:1000A000F9020008F9020008F9020008F902000844
:1000B000F9020008F9020008F9020008F902000834
:1000C000F9020008F9020008F9020008F902000824
:1000D000F9020008F9020008F9020008F902000814
:1000E000F9020008F9020008F90200080000000007
:1000F0000000000000000000000000000000000000
:0C01000000000000000000005FF808F1A3
:10010C0010B5054C237833B9044B13B10448AFF345
:10011C0000800123237010BD0000002000000000AF
:10012C004403000808B5034B1BB103490348AFF364
:10013C00008008BD000000000400002044030008FB
:10014C00704782B00023019302E0019B01330193BD
:10015C00019B8342F9D302B0704700002DE9F047B0
:10016C004B4A936943F0140393614A494A4B0B6021
:10017C0003F13C53A3F57F234FF044325A60DA6805
:10018C0042F4C042DA604FF470030B610122164650
:10019C004FF00009C8464F463AE07B1E032B55D85A
:1001AC00DFE803F002060A0E3A4B10221A614DE00A
:1001BC00384B20221A6149E0364B40221A6145E047
:1001CC00344B80221A6141E0344A4FF08041116176
:1001DC00A2F500624FF48011116199460EE02F4A8E
:1001EC00536823F0706343F000635360D36843F4A7
:1001FC008043D360274B4FF480121A612848FFF7D5
:10020C00A0FFA04642F21070FFF79BFF52462E460D
:10021C00224B9C6814F480440CBF012500259B687C
:10022C0003F40053002B0CBF4FF0010A4FF0000AEF
:10023C000FD172B90137FFB2042FAED903F180434D
:10024C0003F584334FF47001196117461448FFF716
:10025C0078FF002CD6D1002ED4D188F00104B8F14F
:10026C00000FBCD00D4A536823F0706343F0407309
:10027C00536089F00103B9F1000FA5D14FF480410F
:10028C001161A2F50062102111619946B6E700BF19
:10029C000010024000080140000011110010014044
:1002AC00A0860100FFF74CFF0B480C490C4A0023B9
:1002BC0002E0D458C4500433C4188C42F9D3094A10
:1002CC00094C002301E013600432A242FBD300F07E
:1002DC000FF8FFF743FF70470000002000000020DC
:1002EC0064030008000000201C000020FEE7000052
:1002FC0070B500260C4D0D4C641BA410A64209D100
:10030C0000F01AF800260A4D0A4C641BA410A642F1
:10031C0005D170BD55F8043B98470136EEE755F80A
:10032C00043B98470136F2E75C0300085C030008C5
:10033C005C03000860030008F8B500BFF8BC08BCFB
:10034C009E467047F8B500BFF8BC08BC9E46704787
:04035C003101000863
:040360000D01000883
:04000005080002B13C
:00000001FF
