:020000040800F2
:10000000005000201D02000865020008650200087B
:100010006502000865020008650200080000000093
:100020000000000000000000000000006502000861
:100030006502000800000000650200086502000873
:1000400065020008650200086502000865020008F4
:1000500065020008650200086502000865020008E4
:1000600065020008650200086502000865020008D4
:1000700065020008650200086502000865020008C4
:1000800065020008650200086502000865020008B4
:1000900065020008650200086502000865020008A4
:1000A0006502000865020008650200086502000894
:1000B0006502000865020008650200086502000884
:1000C0006502000865020008650200086502000874
:1000D0006502000865020008650200086502000864
:1000E00065020008650200086502000800000000C3
:1000F0000000000000000000000000000000000000
:0C01000000000000000000005FF808F1A3
:10010C0010B5054C237833B9044B13B10448AFF345
:10011C0000800123237010BD0000002000000000AF
:10012C00B002000808B5034B1BB103490348AFF3F9
:10013C00008008BD0000000004000020B002000890
:10014C0082B00023019302E0019B01330193019AD9
:10015C00024B9A42F8D902B0704700BF1FA10700AA
:10016C0030B583B0274A936943F004039361264B5F
:10017C001A6892B21A601A6842F0885242F48812D5
:10018C001A601A6822F0FF021A601A6842F088029C
:10019C001A60DA6842F00302DA6000240AE01A4DB1
:1001AC00F0232B61FFF7CCFF4FF470032B61FFF7AB
:1001BC00C7FF0134022CF2DD0FE0134B4FF4801219
:1001CC001A6112E0104B4FF400121A6100230193D4
:1001DC00019A42F20F739A4210D90B4B9B6813F0A1
:1001EC00010FEAD1084B10221A61074B9B6813F0E0
:1001FC00020FE7D1044B20221A61E7E7019B013380
:10020C000193E5E700100240000801407047000030
:10021C00FFF7FCFF0B480C490C4A002302E0D458B2
:10022C00C4500433C4188C42F9D3094A094C002336
:10023C0001E013600432A242FBD300F00FF8FFF789
:10024C008FFF70470000002000000020D002000843
:10025C00000000201C000020FEE7000070B5002606
:10026C000C4D0D4C641BA410A64209D100F01AF8D9
:10027C0000260A4D0A4C641BA410A64205D170BD81
:10028C0055F8043B98470136EEE755F8043B984780
:10029C000136F2E7C8020008C8020008C8020008CC
:1002AC00CC020008F8B500BFF8BC08BC9E467047ED
:0C02BC00F8B500BFF8BC08BC9E467047B7
:0402C80031010008F8
:0402CC000D01000818
:040000050800021DD0
:00000001FF
