:020000040800F2
:1000000000500020E9020008310300083103000815
:10001000310300083103000831030008000000002C
:100020000000000000000000000000003103000894
:10003000310300080000000031030008310300080C
:1000400031030008310300083103000831030008C0
:1000500031030008310300083103000831030008B0
:1000600031030008310300083103000831030008A0
:100070003103000831030008310300083103000890
:100080003103000831030008310300083103000880
:100090003103000831030008310300083103000870
:1000A0003103000831030008310300083103000860
:1000B0003103000831030008310300083103000850
:1000C0003103000831030008310300083103000840
:1000D0003103000831030008310300083103000830
:1000E000310300083103000831030008000000005C
:1000F0000000000000000000000000000000000000
:0C01000000000000000000005FF808F1A3
:10010C0010B5054C237833B9044B13B10448AFF345
:10011C0000800123237010BD0000002000000000AF
:10012C007C03000808B5034B1BB103490348AFF32C
:10013C00008008BD00000000040000207C030008C3
:10014C00704700002DE9F04100F064F800F06AF807
:10015C002D4B4FF490021A6120221A610127394667
:10016C00B84621E0284B4FF4D0021A61B8F1020FC7
:10017C0041D0B8F1030F42D0B8F1010F02D1224B9C
:10018C0020221A6142F2107000F07AF834B92FB9BB
:10019C0000F082F842F2107000F072F842F2107027
:1001AC0000F06EF837462946174B9B6813F0010395
:1001BC000CBF01250025154A946814F480440CBF2B
:1001CC0001260026002BE1D10029DFD1104B1B7832
:1001DC00002BDBD108F101085FFA88F8B8F1040FA5
:1001EC00C0D903F1804303F584334FF4D0021A6174
:1001FC004FF00108C3E7044B60221A61C2E7024BBF
:10020C0068221A61BEE700BF0008014000100140DF
:10021C001C000020024A936943F014039361704759
:10022C0000100240144B1A6822F4700242F440127F
:10023C001A601A6822F0706242F040721A601A68F2
:10024C0022F4704242F440521A601A6822F00F02F3
:10025C0042F008021A60DA6842F00102DA60074ADA
:10026C00536823F0706343F000635360D36843F426
:10027C008043D360704700BF00080140001001406C
:10028C0082B00023019302E0019B01330193019B97
:10029C008342F9D302B070470E4B1B785BB90E4A00
:1002AC00136823F00F0343F003031360012313615E
:1002BC00084A13707047084A136823F00F0343F081
:1002CC0008031360D36843F00103D360014B002291
:1002DC001A7070471C00002000080140FFF730FF27
:1002EC000B480C490C4A002302E0D458C450043388
:1002FC00C4188C42F9D3094A094C002301E013605D
:10030C000432A242FBD300F00FF8FFF71BFF70473B
:10031C0000000020000000209C03000800000020CA
:10032C0020000020FEE7000070B500260C4D0D4C9F
:10033C00641BA410A64209D100F01AF800260A4D3D
:10034C000A4C641BA410A64205D170BD55F8043BA1
:10035C0098470136EEE755F8043B98470136F2E72B
:10036C009403000894030008940300089803000801
:10037C00F8B500BFF8BC08BC9E467047F8B500BF86
:08038C00F8BC08BC9E46704756
:04039400310100082B
:040398000D0100084B
:04000005080002E904
:00000001FF
