:020000040800F2
:1000000000500020350300087D0300087D03000830
:100010007D0300087D0300087D0300080000000048
:100020000000000000000000000000007D03000848
:100030007D030008000000007D0300087D03000828
:100040007D0300087D0300087D0300087D03000890
:100050007D0300087D0300087D0300087D03000880
:100060007D0300087D0300087D0300087D03000870
:100070007D0300087D0300087D0300087D03000860
:100080007D0300087D0300087D0300087D03000850
:100090007D0300087D0300087D0300087D03000840
:1000A0007D0300087D0300087D0300087D03000830
:1000B0007D0300087D0300087D0300087D03000820
:1000C0007D0300087D0300087D0300087D03000810
:1000D0007D0300087D0300087D0300087D03000800
:1000E0007D0300087D0300087D0300080000000078
:1000F0000000000000000000000000000000000000
:0C01000000000000000000005FF808F1A3
:10010C0010B5054C237833B9044B13B10448AFF345
:10011C0000800123237010BD0000002000000000AF
:10012C00C803000808B5034B1BB103490348AFF3E0
:10013C00008008BD0000000004000020C803000877
:10014C00704700002DE9F04100F062F801273946B4
:10015C00B84622E02B4B4FF4D802C3F8102808F114
:10016C00FF33032B07D8DFE803F0023E4348254B4F
:10017C002022C3F8102842F2107000F09FF834B916
:10018C002FB900F0A7F842F2107000F097F842F285
:10019C00107000F093F8374629461A4BD3F80838FC
:1001AC0013F001030CBF01250025174A946814F4C1
:1001BC0080440CBF01260026002BE0D10029DED1A3
:1001CC00124B1B78002BDAD108F101085FFA88F882
:1001DC00B8F1040FBED90B4B4FF4D802C3F810285A
:1001EC004FF00108C3E7074B6022C3F81028C2E7A1
:1001FC00044B6822C3F81028BDE7024B0422C3F855
:10020C001028B8E700000140001001401C0000203D
:10021C00274A936943F014039361264BD3F80028C3
:10022C0022F4706242F44072C3F80028D3F800281C
:10023C0022F4700242F44012C3F80028D3F80028CC
:10024C0022F0706242F04072C3F80028D3F8002804
:10025C0022F4704242F44052C3F80028D3F800282C
:10026C0022F00F0242F00802C3F80028D3F80C2841
:10027C0042F00102C3F80C280F494A6822F0706260
:10028C0042F000624A60CA6842F48042CA604FF48D
:10029C008022C3F810284FF40012C3F810284FF432
:1002AC008002C3F810284FF40022C3F810287047BE
:1002BC0000100240000001400010014082B00023F9
:1002CC00019302E0019B01330193019B8342F9D31B
:1002DC0002B07047124B1B7873B9124AD2F800382F
:1002EC0023F00F0343F00303C2F800380123C2F8D4
:1002FC0010380B4A137070470A4AD2F8003823F0B2
:10030C000F0343F00803C2F80038D2F80C3843F05E
:10031C000103C2F80C38024B00221A70704700BF60
:10032C001C00002000000140FFF70AFF0B480C499D
:10033C000C4A002302E0D458C4500433C4188C4235
:10034C00F9D3094A094C002301E013600432A2429C
:10035C00FBD300F00FF8FFF7F5FE7047000000200C
:10036C0000000020E803000800000020200000200E
:10037C00FEE7000070B500260C4D0D4C641BA4105C
:10038C00A64209D100F01AF800260A4D0A4C641B4B
:10039C00A410A64205D170BD55F8043B9847013610
:1003AC00EEE755F8043B98470136F2E7E003000806
:1003BC00E0030008E0030008E4030008F8B500BF00
:1003CC00F8BC08BC9E467047F8B500BFF8BC08BC2A
:0403DC009E46704782
:0403E00031010008DF
:0403E4000D010008FF
:0400000508000335B7
:00000001FF
