:020000040800F2
:1000000000500020B1030008F9030008F9030008BC
:10001000F9030008F9030008F903000800000000D4
:10002000000000000000000000000000F9030008CC
:10003000F903000800000000F9030008F9030008B4
:10004000F9030008F9030008F9030008F9030008A0
:10005000F9030008F9030008F9030008F903000890
:10006000F9030008F9030008F9030008F903000880
:10007000F9030008F9030008F9030008F903000870
:10008000F9030008F9030008F9030008F903000860
:10009000F9030008F9030008F9030008F903000850
:1000A000F9030008F9030008F9030008F903000840
:1000B000F9030008F9030008F9030008F903000830
:1000C000F9030008F9030008F9030008F903000820
:1000D000F9030008F9030008F9030008F903000810
:1000E000F9030008F9030008F90300080000000004
:1000F0000000000000000000000000000000000000
:0C01000000000000000000005FF808F1A3
:10010C0010B5054C237833B9044B13B10448AFF345
:10011C0000800123237010BD0000002000000000AF
:10012C004404000808B5034B1BB103490348AFF363
:10013C00008008BD000000000400002044040008FA
:10014C00704782B00023019302E0019B01330193BD
:10015C00019B8342F9D302B0704700002DE9F041B6
:10016C000746124AD2F80480536823F4700343F410
:10017C004013536000240EE00C4E4FF400533361D7
:10018C000B4D2846FFF7DDFF4FF000533361284637
:10019C00FFF7D7FF0134A742EEDC044BC3F8048011
:1001AC00DA6842F40052DA60BDE8F08100100140D8
:1001BC00A08601002DE9F04700F0BAF800F0C0F875
:1001CC00574B4FF460021A61564A536823F0706320
:1001DC0043F000635360D36843F48043D360012041
:1001EC00FFF7BCFF4FF00108414600252C463FE0CD
:1001FC0085F0010A0320FFF7B1FFA5B9494A5368FE
:10020C0023F0706343F040735360631EDBB2032B27
:10021C0004D813464FF480421A610FE0414B4FF063
:10022C0080421A610AE03F4A536823F0706343F03E
:10023C0000635360D36843F48043D36044F620607A
:10024C00FFF77FFF554623E04DB1364B4FF480420C
:10025C001A6104E0002D43D1314B20221A6132483F
:10026C00FFF76FFF42F21070FFF76BFFB846314695
:10027C002C4A936813F480430CBF01260026926825
:10028C0012F400590CBF012700270BB90029AFD07D
:10029C00B9F1000FE6D1B8F1000FE3D10134234AD4
:1002AC0082FB0432E317C3EB620303EB8303E31A11
:1002BC00DCB20220FFF752FF194B4FF460021A61B7
:1002CC00042CCCD801A353F824F000BF1F03000862
:1002DC005502000861020008F70200080B03000831
:1002EC00104B4FF480421A61B6E71DB90C4B6022DB
:1002FC001A61B4E70B4B4FF480421A61F6E71DB953
:10030C00074BE0221A61AAE7064B4FF480421A61B0
:10031C00F6E7002DA3D0034B4FF080421A619EE705
:10032C000008014000100140400D0300676666663E
:10033C00024A936943F01403936170470010024022
:10034C00164AD2F8003823F4700343F44013C2F871
:10035C00003802F50062136823F0706343F04073B9
:10036C001360136823F0704343F0405313600C4B3D
:10037C005A6822F4700242F400025A60DA6842F4BD
:10038C000052DA605A6822F0706242F000625A60E1
:10039C00DA6842F48042DA60704700BF0000014026
:1003AC0000100140FFF7CCFE0B480C490C4A00230F
:1003BC0002E0D458C4500433C4188C42F9D3094A0F
:1003CC00094C002301E013600432A242FBD300F07D
:1003DC000FF8FFF7EFFE7047000000200000002030
:1003EC0064040008000000201C000020FEE7000050
:1003FC0070B500260C4D0D4C641BA410A64209D1FF
:10040C0000F01AF800260A4D0A4C641BA410A642F0
:10041C0005D170BD55F8043B98470136EEE755F809
:10042C00043B98470136F2E75C0400085C040008C2
:10043C005C04000860040008F8B500BFF8BC08BCF8
:10044C009E467047F8B500BFF8BC08BC9E46704786
:04045C003101000862
:040460000D01000882
:04000005080003B13B
:00000001FF
