:020000040800F2
:1000000000500020C9030008110400081104000872
:100010001104000811040008110400080000000089
:1000200000000000000000000000000011040008B3
:100030001104000800000000110400081104000869
:10004000110400081104000811040008110400083C
:10005000110400081104000811040008110400082C
:10006000110400081104000811040008110400081C
:10007000110400081104000811040008110400080C
:1000800011040008110400081104000811040008FC
:1000900011040008110400081104000811040008EC
:1000A00011040008110400081104000811040008DC
:1000B00011040008110400081104000811040008CC
:1000C00011040008110400081104000811040008BC
:1000D00011040008110400081104000811040008AC
:1000E00011040008110400081104000800000000B9
:1000F0000000000000000000000000000000000000
:0C01000000000000000000005FF808F1A3
:10010C0010B5054C237833B9044B13B10448AFF345
:10011C0000800123237010BD0000002000000000AF
:10012C005C04000808B5034B1BB103490348AFF34B
:10013C00008008BD00000000040000205C040008E2
:10014C00704700000C4B187050B10C4A536823F0E8
:10015C00706343F0407353604FF4804313617047F6
:10016C00064A536823F0706343F0407353604FF0BA
:10017C0080431361704700BF1C0000200010014039
:10018C0038B50D4B1D780D4C636823F0706343F04C
:10019C0000636360E36843F48043E360642000F031
:1001AC0001F9A36813F4804F0CBF012400242846E6
:1001BC00FFF7C8FF204638BD1C000020001001408E
:1001CC002DE9F04F83B000F0B3F800F0B9F8524CC1
:1001DC004FF4D00626610020FFF7B4FF682323619B
:1001EC000120FFF7AFFF4D4D284600F0DBF82661EC
:1001FC000020FFF7A7FF284600F0D4F8012425467D
:10020C000023994601931F464EE00120FFF79AFF09
:10021C001BE00120FFF796FF3F4B20221A6114E0F0
:10022C000120FFF78FFF3C4B60221A610DE001208B
:10023C00FFF788FF384B68221A6106E0019B83F0B8
:10024C00010301931846FFF77DFF42F2107000F096
:10025C00A9F81EB314BB324B93F800B087F0010A17
:10026C0010E003239C4211DA0120FFF76BFF2D4DA8
:10027C00284600F097F80020FFF764FF284600F0AE
:10028C0091F80134002FECD00223EBE75846FFF72E
:10029C0059FF42F2107000F085F8574642F2107088
:1002AC0000F080F8344645461F4B9B6813F4005A07
:1002BC000CBF4FF001084FF00008FFF761FF064636
:1002CC00BAF1000FC5D1002DC3D1002FB6D109F161
:1002DC000109164A82FB09324FEAE973C3EB620348
:1002EC0003EB8303A9EB03035FFA83F90A4B4FF487
:1002FC00D0021A610020FFF725FF09F1FF33032B11
:10030C00A3D801A252F823F0170200081F0200081C
:10031C002D0200083B0200080008014020A1070044
:10032C001C000020F0490200001001406766666660
:10033C00024A936943F01403936170470010024022
:10034C00164AD2F8003823F4704343F44053C2F8F1
:10035C00003802F50062136823F4700343F4401371
:10036C001360136823F0706343F0407313600C4BFD
:10037C005A6822F4700242F400025A60DA6842F4BD
:10038C000052DA605A6822F0706242F000625A60E1
:10039C00DA6842F48042DA60704700BF0000014026
:1003AC000010014082B00023019302E0019B013355
:1003BC000193019B8342F9D302B07047FFF7C0FE53
:1003CC000B480C490C4A002302E0D458C4500433A7
:1003DC00C4188C42F9D3094A094C002301E013607C
:1003EC000432A242FBD300F00FF8FFF7E9FE70478E
:1003FC0000000020000000207C0400080000002009
:10040C0020000020FEE7000070B500260C4D0D4CBE
:10041C00641BA410A64209D100F01AF800260A4D5C
:10042C000A4C641BA410A64205D170BD55F8043BC0
:10043C0098470136EEE755F8043B98470136F2E74A
:10044C00740400087404000874040008780400089C
:10045C00F8B500BFF8BC08BC9E467047F8B500BFA5
:08046C00F8BC08BC9E46704775
:04047400310100084A
:040478000D0100086A
:04000005080003C923
:00000001FF
