:020000040800F2
:100000000050002059030008A1030008A1030008C4
:10001000A1030008A1030008A103000800000000DC
:10002000000000000000000000000000A103000824
:10003000A103000800000000A1030008A1030008BC
:10004000A1030008A1030008A1030008A103000800
:10005000A1030008A1030008A1030008A1030008F0
:10006000A1030008A1030008A1030008A1030008E0
:10007000A1030008A1030008A1030008A1030008D0
:10008000A1030008A1030008A1030008A1030008C0
:10009000A1030008A1030008A1030008A1030008B0
:1000A000A1030008A1030008A1030008A1030008A0
:1000B000A1030008A1030008A1030008A103000890
:1000C000A1030008A1030008A1030008A103000880
:1000D000A1030008A1030008A1030008A103000870
:1000E000A1030008A1030008A1030008000000000C
:1000F0000000000000000000000000000000000000
:0C01000000000000000000005FF808F1A3
:10010C0010B5054C237833B9044B13B10448AFF345
:10011C0000800123237010BD0000002000000000AF
:10012C00EC03000808B5034B1BB103490348AFF3BC
:10013C00008008BD0000000004000020EC03000853
:10014C00704700002DE9F04F83B000F0B3F800F0D9
:10015C00B9F8544C4FF4D80626616C232361524DE8
:10016C00284600F0E7F82661284600F0E3F8012461
:10017C0021464FF000094E46CA4655E0494B042231
:10018C001A6114E0474B24221A6110E0454B64229B
:10019C001A610CE0434B6C221A6108E089F00103F0
:1001AC00B9F1000F13D13F4A04211161994642F273
:1001BC00107000F0BFF88DBB84BB3A4BDB6803F0CA
:1001CC00040BC3F3800986F00103019317E0354A51
:1001DC004FF4802111619946E9E703239C4212DA1E
:1001EC00304D04232B6143F6982000F0A3F84FF414
:1001FC0080232B6143F6982000F09CF80134002EEC
:10020C00EBD00223EAE7BBF1000F45D0254B0422CB
:10021C001A6142F2107000F08DF8019E42F21070DB
:10022C0000F088F844463946204A936813F400538A
:10023C000CBF01270027956815F480450CBF4FF0C3
:10024C0001084FF00008002BB5D10029B3D1002EC6
:10025C00A4D10AF1010A164A82FB0A324FEAEA7368
:10026C00C3EB620303EB8303AAEB03035FFA83FA8A
:10027C000C4B4FF4D8021A610AF1FF33032B96D8BA
:10028C0001A252F823F000BF890100089101000877
:10029C0099010008A1010008024B4FF480221A6159
:1002AC00B7E700BF0008014020A107000010014083
:1002BC0067666666024A936943F01403936170475C
:1002CC0000100240194AD2F8003823F4706343F44A
:1002DC004073C2F80038164B1A6822F4704242F48C
:1002EC0040521A601A6822F4700242F440121A60EA
:1002FC001A6822F0706242F040721A6003F50063D3
:10030C005A6822F4700242F400025A60DA6842F42D
:10031C000052DA605A6822F0706242F000625A6051
:10032C00DA6842F48042DA60704700BF0000014096
:10033C000008014082B00023019302E0019B0133CD
:10034C000193019B8342F9D302B07047FFF7F8FE8B
:10035C000B480C490C4A002302E0D458C450043317
:10036C00C4188C42F9D3094A094C002301E01360EC
:10037C000432A242FBD300F00FF8FFF7E3FE704704
:10038C0000000020000000200C04000800000020E9
:10039C001C000020FEE7000070B500260C4D0D4C33
:1003AC00641BA410A64209D100F01AF800260A4DCD
:1003BC000A4C641BA410A64205D170BD55F8043B31
:1003CC0098470136EEE755F8043B98470136F2E7BB
:1003DC0004040008040400080404000808040008CD
:1003EC00F8B500BFF8BC08BC9E467047F8B500BF16
:0803FC00F8BC08BC9E467047E6
:0404040031010008BA
:040408000D010008DA
:040000050800035993
:00000001FF
