:020000040800F2
:1000000000500020A1030008E9030008E9030008EC
:10001000E9030008E9030008E90300080000000004
:10002000000000000000000000000000E9030008DC
:10003000E903000800000000E9030008E9030008E4
:10004000E9030008E9030008E9030008E9030008E0
:10005000E9030008E9030008E9030008E9030008D0
:10006000E9030008E9030008E9030008E9030008C0
:10007000E9030008E9030008E9030008E9030008B0
:10008000E9030008E9030008E9030008E9030008A0
:10009000E9030008E9030008E9030008E903000890
:1000A000E9030008E9030008E9030008E903000880
:1000B000E9030008E9030008E9030008E903000870
:1000C000E9030008E9030008E9030008E903000860
:1000D000E9030008E9030008E9030008E903000850
:1000E000E9030008E9030008E90300080000000034
:1000F0000000000000000000000000000000000000
:0C01000000000000000000005FF808F1A3
:10010C0010B5054C237833B9044B13B10448AFF345
:10011C0000800123237010BD0000002000000000AF
:10012C003404000808B5034B1BB103490348AFF373
:10013C00008008BD0000000004000020340400080A
:10014C00704782B00023019302E0019B01330193BD
:10015C00019B8342F9D302B0704700002DE9F041B6
:10016C000746124AD2F80480536823F4700343F410
:10017C004013536000240EE00C4E4FF400533361D7
:10018C000B4D2846FFF7DDFF4FF000533361284637
:10019C00FFF7D7FF0134A742EEDC044BC3F8048011
:1001AC00DA6842F40052DA60BDE8F08100100140D8
:1001BC00A08601002DE9F04700F0B8F800F0BEF879
:1001CC00564B4FF460021A61554A536823F0706322
:1001DC0043F000635360D36843F48043D360012041
:1001EC00FFF7BCFF4FF00108414600252C463EE0CE
:1001FC0085F0010A0320FFF7B1FFA5B9484A5368FF
:10020C0023F0706343F040735360631EDBB2032B27
:10021C0004D813464FF480421A610FE0404B4FF064
:10022C0080421A610AE03E4A536823F0706343F03F
:10023C0000635360D36843F48043D3603948FFF7BD
:10024C0080FF554623E04DB1354B4FF480421A6187
:10025C0004E0002D42D1314B20221A613148FFF7C6
:10026C0070FF42F21070FFF76CFFB84631462C4A13
:10027C00936813F480430CBF01260026926812F495
:10028C0000590CBF012700270BB90029B0D0B9F1D8
:10029C00000FE6D1B8F1000FE3D10134224A82FB02
:1002AC000432E317C3EB620303EB8303E31ADCB200
:1002BC000220FFF753FF194B4FF460021A61042C14
:1002CC00CCD801A353F824F01B03000853020008F8
:1002DC005F020008F302000807030008104B4FF4FC
:1002EC0080421A61B7E71DB90C4B60221A61B5E761
:1002FC000B4B4FF480421A61F6E71DB9074BE02215
:10030C001A61ABE7064B4FF480421A61F6E7002DF9
:10031C00A4D0034B4FF080421A619FE700080140C4
:10032C0000100140400D030067666666024A93693F
:10033C0043F014039361704700100240144B1A6889
:10034C0022F4700242F440121A601A6822F07062B1
:10035C0042F040721A601A6822F0704242F0405229
:10036C001A6003F500635A6822F4700242F400022A
:10037C005A60DA6842F40052DA605A6822F070620D
:10038C0042F000625A60DA6842F48042DA607047E8
:10039C0000080140FFF7D4FE0B480C490C4A00231F
:1003AC0002E0D458C4500433C4188C42F9D3094A1F
:1003BC00094C002301E013600432A242FBD300F08D
:1003CC000FF8FFF7F7FE7047000000200000002038
:1003DC0054040008000000201C000020FEE7000070
:1003EC0070B500260C4D0D4C641BA410A64209D10F
:1003FC0000F01AF800260A4D0A4C641BA410A64201
:10040C0005D170BD55F8043B98470136EEE755F819
:10041C00043B98470136F2E74C0400084C040008F2
:10042C004C04000850040008F8B500BFF8BC08BC28
:10043C009E467047F8B500BFF8BC08BC9E46704796
:04044C003101000872
:040450000D01000892
:04000005080003A14B
:00000001FF
