:020000040800F2
:10000000005000204D0200089502000895020008EB
:100010009502000895020008950200080000000003
:100020000000000000000000000000009502000831
:1000300095020008000000009502000895020008E3
:100040009502000895020008950200089502000834
:100050009502000895020008950200089502000824
:100060009502000895020008950200089502000814
:100070009502000895020008950200089502000804
:1000800095020008950200089502000895020008F4
:1000900095020008950200089502000895020008E4
:1000A00095020008950200089502000895020008D4
:1000B00095020008950200089502000895020008C4
:1000C00095020008950200089502000895020008B4
:1000D00095020008950200089502000895020008A4
:1000E0009502000895020008950200080000000033
:1000F0000000000000000000000000000000000000
:0C01000000000000000000005FF808F1A3
:10010C0010B5054C237833B9044B13B10448AFF345
:10011C0000800123237010BD0000002000000000AF
:10012C00E002000808B5034B1BB103490348AFF3C9
:10013C00008008BD0000000004000020E002000860
:10014C00704782B00023019302E0019B01330193BD
:10015C00019B8342F9D302B07047000070B5314A5D
:10016C00936943F0140393612F4B304A1A6003F5E3
:10017C0000632F4A5A60DA6842F40052DA600024B5
:10018C000DE0294EF02333612A4D2846FFF7D9FFA5
:10019C004FF4700333612846FFF7D3FF0134022C70
:1001AC00EFDD214B4FF470021A610122002415E09F
:1001BC001D4B4FF470021A61631E032B06D8DFE847
:1001CC0003F00225292D184B10221A611A48FFF74B
:1001DC00B8FF42F21070FFF7B4FF2A46174B9B682A
:1001EC0003F40053002B0CBF01250025F1D1002A8C
:1001FC00EFD10134E4B2042CDAD903F1804303F5D6
:10020C0084334FF4700119611446DFE7064B30223A
:10021C001A61DBE7044B70221A61D7E7024BF0221C
:10022C001A61D3E7001002400008014000001111D0
:10023C004444344420A10700A08601000010014072
:10024C00FFF77EFF0B480C490C4A002302E0D45800
:10025C00C4500433C4188C42F9D3094A094C002306
:10026C0001E013600432A242FBD300F00FF8FFF759
:10027C0075FF7047000000200000002000030008FC
:10028C00000000201C000020FEE7000070B50026D6
:10029C000C4D0D4C641BA410A64209D100F01AF8A9
:1002AC0000260A4D0A4C641BA410A64205D170BD51
:1002BC0055F8043B98470136EEE755F8043B984750
:1002CC000136F2E7F8020008F8020008F80200080C
:1002DC00FC020008F8B500BFF8BC08BC9E4670478D
:0C02EC00F8B500BFF8BC08BC9E46704787
:0402F80031010008C8
:0402FC000D010008E8
:040000050800024DA0
:00000001FF
