:020000040800F2
:1000000000500020C9020008110300081103000875
:10001000110300081103000811030008000000008C
:1000200000000000000000000000000011030008B4
:10003000110300080000000011030008110300086C
:100040001103000811030008110300081103000840
:100050001103000811030008110300081103000830
:100060001103000811030008110300081103000820
:100070001103000811030008110300081103000810
:100080001103000811030008110300081103000800
:1000900011030008110300081103000811030008F0
:1000A00011030008110300081103000811030008E0
:1000B00011030008110300081103000811030008D0
:1000C00011030008110300081103000811030008C0
:1000D00011030008110300081103000811030008B0
:1000E00011030008110300081103000800000000BC
:1000F0000000000000000000000000000000000000
:0C01000000000000000000005FF808F1A3
:10010C0010B5054C237833B9044B13B10448AFF345
:10011C0000800123237010BD0000002000000000AF
:10012C005C03000808B5034B1BB103490348AFF34C
:10013C00008008BD00000000040000205C030008E3
:10014C00704782B00023019302E0019B01330193BD
:10015C00019B8342F9D302B0704700002DE9F843AC
:10016C0000F072F800F078F8334B4FF470021A611B
:10017C0003F500634FF480421A6101210E460027FB
:10018C003D4618E0002F4DD12C48FFF7DAFF64B93B
:10019C005EB987F00104002F49D1294B4FF0804202
:1001AC001A612648FFF7CDFF274642F21070FFF781
:1001BC00C8FF49464646224B9C6814F480440CBF49
:1001CC004FF001084FF000089B6803F40053002B1C
:1001DC000CBF4FF001094FF00009D8D10029D6D13E
:1001EC000135184A82FB0532EB17C3EB620303EBB4
:1001FC008303EB1A104A4FF47001116113F0FF05E1
:10020C0006D0134610221A61012DBBD920221A6187
:10021C00022DB7D9084B40221A61032DB2D9802286
:10022C001A61AFE7064B4FF080421A61ACE7044B02
:10023C004FF480421A61B4E700080140400D0300FE
:10024C000010014067666666024A936943F0140326
:10025C009361704700100240174B1A6822F4702209
:10026C0042F440321A601A6822F4700242F44012CE
:10027C001A601A6822F0706242F040721A601A68B2
:10028C0022F0704242F040521A6003F500635A6843
:10029C0022F4700242F400025A60DA6842F400520E
:1002AC00DA605A6822F0706242F0E0625A60DA68F2
:1002BC0042F48042DA60704700080140FFF740FFCB
:1002CC000B480C490C4A002302E0D458C4500433A8
:1002DC00C4188C42F9D3094A094C002301E013607D
:1002EC000432A242FBD300F00FF8FFF737FF704740
:1002FC0000000020000000207C030008000000200B
:10030C001C000020FEE7000070B500260C4D0D4CC3
:10031C00641BA410A64209D100F01AF800260A4D5D
:10032C000A4C641BA410A64205D170BD55F8043BC1
:10033C0098470136EEE755F8043B98470136F2E74B
:10034C0074030008740300087403000878030008A1
:10035C00F8B500BFF8BC08BC9E467047F8B500BFA6
:08036C00F8BC08BC9E46704776
:04037400310100084B
:040378000D0100086B
:04000005080002C924
:00000001FF
